{
  "contractName": "Farmer",
  "abi": [
    {
      "constant": true,
      "inputs": [],
      "name": "phID",
      "outputs": [
        {
          "name": "",
          "type": "string"
        }
      ],
      "payable": false,
      "stateMutability": "view",
      "type": "function"
    },
    {
      "constant": true,
      "inputs": [],
      "name": "lotID",
      "outputs": [
        {
          "name": "",
          "type": "string"
        }
      ],
      "payable": false,
      "stateMutability": "view",
      "type": "function"
    },
    {
      "constant": true,
      "inputs": [],
      "name": "warehouse",
      "outputs": [
        {
          "name": "",
          "type": "address"
        }
      ],
      "payable": false,
      "stateMutability": "view",
      "type": "function"
    },
    {
      "constant": true,
      "inputs": [],
      "name": "processingHouse",
      "outputs": [
        {
          "name": "",
          "type": "address"
        }
      ],
      "payable": false,
      "stateMutability": "view",
      "type": "function"
    },
    {
      "constant": true,
      "inputs": [],
      "name": "distributor",
      "outputs": [
        {
          "name": "",
          "type": "address"
        }
      ],
      "payable": false,
      "stateMutability": "view",
      "type": "function"
    },
    {
      "constant": true,
      "inputs": [],
      "name": "state",
      "outputs": [
        {
          "name": "",
          "type": "uint8"
        }
      ],
      "payable": false,
      "stateMutability": "view",
      "type": "function"
    },
    {
      "constant": true,
      "inputs": [],
      "name": "processor",
      "outputs": [
        {
          "name": "",
          "type": "address"
        }
      ],
      "payable": false,
      "stateMutability": "view",
      "type": "function"
    },
    {
      "constant": true,
      "inputs": [],
      "name": "farmer",
      "outputs": [
        {
          "name": "",
          "type": "address"
        }
      ],
      "payable": false,
      "stateMutability": "view",
      "type": "function"
    },
    {
      "constant": true,
      "inputs": [],
      "name": "present",
      "outputs": [
        {
          "name": "",
          "type": "bool"
        }
      ],
      "payable": false,
      "stateMutability": "view",
      "type": "function"
    },
    {
      "constant": true,
      "inputs": [],
      "name": "farmerID",
      "outputs": [
        {
          "name": "",
          "type": "string"
        }
      ],
      "payable": false,
      "stateMutability": "view",
      "type": "function"
    },
    {
      "inputs": [],
      "payable": false,
      "stateMutability": "nonpayable",
      "type": "constructor"
    },
    {
      "constant": false,
      "inputs": [
        {
          "name": "_farmerIDnum",
          "type": "string"
        },
        {
          "name": "_lotIDnum",
          "type": "string"
        },
        {
          "name": "_reason",
          "type": "string"
        }
      ],
      "name": "createAsset",
      "outputs": [],
      "payable": false,
      "stateMutability": "nonpayable",
      "type": "function"
    },
    {
      "constant": false,
      "inputs": [
        {
          "name": "_farmerIDnum",
          "type": "string"
        },
        {
          "name": "_lotIDnum",
          "type": "string"
        },
        {
          "name": "_phID",
          "type": "string"
        },
        {
          "name": "_reason",
          "type": "string"
        }
      ],
      "name": "transferAsset",
      "outputs": [],
      "payable": false,
      "stateMutability": "nonpayable",
      "type": "function"
    },
    {
      "constant": false,
      "inputs": [
        {
          "name": "_farmerIDnum",
          "type": "string"
        },
        {
          "name": "_lotIDnum",
          "type": "string"
        }
      ],
      "name": "phreceiveLot",
      "outputs": [],
      "payable": false,
      "stateMutability": "nonpayable",
      "type": "function"
    },
    {
      "constant": false,
      "inputs": [
        {
          "name": "_farmerIDnum",
          "type": "string"
        },
        {
          "name": "_lotIDnum",
          "type": "string"
        }
      ],
      "name": "phrejectLot",
      "outputs": [],
      "payable": false,
      "stateMutability": "nonpayable",
      "type": "function"
    },
    {
      "constant": false,
      "inputs": [
        {
          "name": "_farmerIDnum",
          "type": "string"
        },
        {
          "name": "_lotIDnum",
          "type": "string"
        }
      ],
      "name": "readsAsset",
      "outputs": [
        {
          "name": "",
          "type": "string"
        },
        {
          "name": "",
          "type": "string"
        },
        {
          "name": "",
          "type": "uint256"
        },
        {
          "name": "",
          "type": "string"
        },
        {
          "name": "",
          "type": "string"
        }
      ],
      "payable": false,
      "stateMutability": "nonpayable",
      "type": "function"
    },
    {
      "constant": false,
      "inputs": [
        {
          "name": "_farmerIDnum",
          "type": "string"
        },
        {
          "name": "_lotIDnum",
          "type": "string"
        }
      ],
      "name": "readAsset",
      "outputs": [
        {
          "name": "",
          "type": "uint256"
        }
      ],
      "payable": false,
      "stateMutability": "nonpayable",
      "type": "function"
    },
    {
      "constant": false,
      "inputs": [
        {
          "name": "_farmerIDnum",
          "type": "string"
        }
      ],
      "name": "getTarget",
      "outputs": [
        {
          "name": "",
          "type": "string"
        }
      ],
      "payable": false,
      "stateMutability": "nonpayable",
      "type": "function"
    }
  ],
  "bytecode": "0x608060405234801561001057600080fd5b5060008060006101000a81548160ff0219169083600581111561002f57fe5b021790555061215f806100436000396000f3006080604052600436106100f1576000357c0100000000000000000000000000000000000000000000000000000000900463ffffffff16806309de0eb8146100f65780631444afa1146101b95780632cddc4111461042c57806359f6c6c814610567578063651dd82e146105f757806371fbdc43146106875780639b622769146107365780639f5446061461078d578063bf39d5e71461083c578063bfe1092814610893578063c19d93fb146108ea578063ce1b1d4314610923578063d811fcf01461097a578063da1b620b146109d1578063de58d15614610ab3578063e735afb214610ba8578063f6c3400914610bd7575b600080fd5b34801561010257600080fd5b506101a3600480360381019080803590602001908201803590602001908080601f0160208091040260200160405190810160405280939291908181526020018383808284378201915050505050509192919290803590602001908201803590602001908080601f0160208091040260200160405190810160405280939291908181526020018383808284378201915050505050509192919290505050610c67565b6040518082815260200191505060405180910390f35b3480156101c557600080fd5b50610266600480360381019080803590602001908201803590602001908080601f0160208091040260200160405190810160405280939291908181526020018383808284378201915050505050509192919290803590602001908201803590602001908080601f0160208091040260200160405190810160405280939291908181526020018383808284378201915050505050509192919290505050610d4c565b604051808060200180602001868152602001806020018060200185810385528a818151815260200191508051906020019080838360005b838110156102b857808201518184015260208101905061029d565b50505050905090810190601f1680156102e55780820380516001836020036101000a031916815260200191505b50858103845289818151815260200191508051906020019080838360005b8381101561031e578082015181840152602081019050610303565b50505050905090810190601f16801561034b5780820380516001836020036101000a031916815260200191505b50858103835287818151815260200191508051906020019080838360005b83811015610384578082015181840152602081019050610369565b50505050905090810190601f1680156103b15780820380516001836020036101000a031916815260200191505b50858103825286818151815260200191508051906020019080838360005b838110156103ea5780820151818401526020810190506103cf565b50505050905090810190601f1680156104175780820380516001836020036101000a031916815260200191505b50995050505050505050505060405180910390f35b34801561043857600080fd5b50610565600480360381019080803590602001908201803590602001908080601f0160208091040260200160405190810160405280939291908181526020018383808284378201915050505050509192919290803590602001908201803590602001908080601f0160208091040260200160405190810160405280939291908181526020018383808284378201915050505050509192919290803590602001908201803590602001908080601f0160208091040260200160405190810160405280939291908181526020018383808284378201915050505050509192919290803590602001908201803590602001908080601f0160208091040260200160405190810160405280939291908181526020018383808284378201915050505050509192919290505050611343565b005b34801561057357600080fd5b5061057c611718565b6040518080602001828103825283818151815260200191508051906020019080838360005b838110156105bc5780820151818401526020810190506105a1565b50505050905090810190601f1680156105e95780820380516001836020036101000a031916815260200191505b509250505060405180910390f35b34801561060357600080fd5b5061060c6117b6565b6040518080602001828103825283818151815260200191508051906020019080838360005b8381101561064c578082015181840152602081019050610631565b50505050905090810190601f1680156106795780820380516001836020036101000a031916815260200191505b509250505060405180910390f35b34801561069357600080fd5b50610734600480360381019080803590602001908201803590602001908080601f0160208091040260200160405190810160405280939291908181526020018383808284378201915050505050509192919290803590602001908201803590602001908080601f0160208091040260200160405190810160405280939291908181526020018383808284378201915050505050509192919290505050611854565b005b34801561074257600080fd5b5061074b611980565b604051808273ffffffffffffffffffffffffffffffffffffffff1673ffffffffffffffffffffffffffffffffffffffff16815260200191505060405180910390f35b34801561079957600080fd5b5061083a600480360381019080803590602001908201803590602001908080601f0160208091040260200160405190810160405280939291908181526020018383808284378201915050505050509192919290803590602001908201803590602001908080601f01602080910402602001604051908101604052809392919081815260200183838082843782019150505050505091929192905050506119a6565b005b34801561084857600080fd5b50610851611ad2565b604051808273ffffffffffffffffffffffffffffffffffffffff1673ffffffffffffffffffffffffffffffffffffffff16815260200191505060405180910390f35b34801561089f57600080fd5b506108a8611af8565b604051808273ffffffffffffffffffffffffffffffffffffffff1673ffffffffffffffffffffffffffffffffffffffff16815260200191505060405180910390f35b3480156108f657600080fd5b506108ff611b1e565b6040518082600581111561090f57fe5b60ff16815260200191505060405180910390f35b34801561092f57600080fd5b50610938611b30565b604051808273ffffffffffffffffffffffffffffffffffffffff1673ffffffffffffffffffffffffffffffffffffffff16815260200191505060405180910390f35b34801561098657600080fd5b5061098f611b56565b604051808273ffffffffffffffffffffffffffffffffffffffff1673ffffffffffffffffffffffffffffffffffffffff16815260200191505060405180910390f35b3480156109dd57600080fd5b50610a38600480360381019080803590602001908201803590602001908080601f0160208091040260200160405190810160405280939291908181526020018383808284378201915050505050509192919290505050611b7c565b6040518080602001828103825283818151815260200191508051906020019080838360005b83811015610a78578082015181840152602081019050610a5d565b50505050905090810190601f168015610aa55780820380516001836020036101000a031916815260200191505b509250505060405180910390f35b348015610abf57600080fd5b50610ba6600480360381019080803590602001908201803590602001908080601f0160208091040260200160405190810160405280939291908181526020018383808284378201915050505050509192919290803590602001908201803590602001908080601f0160208091040260200160405190810160405280939291908181526020018383808284378201915050505050509192919290803590602001908201803590602001908080601f0160208091040260200160405190810160405280939291908181526020018383808284378201915050505050509192919290505050611c8c565b005b348015610bb457600080fd5b50610bbd611fdd565b604051808215151515815260200191505060405180910390f35b348015610be357600080fd5b50610bec611ff0565b6040518080602001828103825283818151815260200191508051906020019080838360005b83811015610c2c578082015181840152602081019050610c11565b50505050905090810190601f168015610c595780820380516001836020036101000a031916815260200191505b509250505060405180910390f35b60006008836040518082805190602001908083835b602083101515610ca15780518252602082019150602081019050602083039250610c7c565b6001836020036101000a0380198251168184511680821785525050505050509050019150509081526020016040518091039020600201826040518082805190602001908083835b602083101515610d0d5780518252602082019150602081019050602083039250610ce8565b6001836020036101000a038019825116818451168082178552505050505050905001915050908152602001604051809103902060010154905092915050565b60608060006060806008876040518082805190602001908083835b602083101515610d8c5780518252602082019150602081019050602083039250610d67565b6001836020036101000a03801982511681845116808217855250505050505090500191505090815260200160405180910390206000016008886040518082805190602001908083835b602083101515610dfa5780518252602082019150602081019050602083039250610dd5565b6001836020036101000a0380198251168184511680821785525050505050509050019150509081526020016040518091039020600201876040518082805190602001908083835b602083101515610e665780518252602082019150602081019050602083039250610e41565b6001836020036101000a03801982511681845116808217855250505050505090500191505090815260200160405180910390206000016008896040518082805190602001908083835b602083101515610ed45780518252602082019150602081019050602083039250610eaf565b6001836020036101000a0380198251168184511680821785525050505050509050019150509081526020016040518091039020600201886040518082805190602001908083835b602083101515610f405780518252602082019150602081019050602083039250610f1b565b6001836020036101000a03801982511681845116808217855250505050505090500191505090815260200160405180910390206001015460088a6040518082805190602001908083835b602083101515610faf5780518252602082019150602081019050602083039250610f8a565b6001836020036101000a038019825116818451168082178552505050505050905001915050908152602001604051809103902060010160088b6040518082805190602001908083835b60208310151561101d5780518252602082019150602081019050602083039250610ff8565b6001836020036101000a03801982511681845116808217855250505050505090500191505090815260200160405180910390206002018a6040518082805190602001908083835b6020831015156110895780518252602082019150602081019050602083039250611064565b6001836020036101000a0380198251168184511680821785525050505050509050019150509081526020016040518091039020600201848054600181600116156101000203166002900480601f0160208091040260200160405190810160405280929190818152602001828054600181600116156101000203166002900480156111545780601f1061112957610100808354040283529160200191611154565b820191906000526020600020905b81548152906001019060200180831161113757829003601f168201915b50505050509450838054600181600116156101000203166002900480601f0160208091040260200160405190810160405280929190818152602001828054600181600116156101000203166002900480156111f05780601f106111c5576101008083540402835291602001916111f0565b820191906000526020600020905b8154815290600101906020018083116111d357829003601f168201915b50505050509350818054600181600116156101000203166002900480601f01602080910402602001604051908101604052809291908181526020018280546001816001161561010002031660029004801561128c5780601f106112615761010080835404028352916020019161128c565b820191906000526020600020905b81548152906001019060200180831161126f57829003601f168201915b50505050509150808054600181600116156101000203166002900480601f0160208091040260200160405190810160405280929190818152602001828054600181600116156101000203166002900480156113285780601f106112fd57610100808354040283529160200191611328565b820191906000526020600020905b81548152906001019060200180831161130b57829003601f168201915b50505050509050945094509450945094509295509295909350565b836008856040518082805190602001908083835b60208310151561137c5780518252602082019150602081019050602083039250611357565b6001836020036101000a038019825116818451168082178552505050505050905001915050908152602001604051809103902060000190805190602001906113c592919061208e565b50600260058111156113d357fe5b6008856040518082805190602001908083835b60208310151561140b57805182526020820191506020810190506020830392506113e6565b6001836020036101000a0380198251168184511680821785525050505050509050019150509081526020016040518091039020600201846040518082805190602001908083835b6020831015156114775780518252602082019150602081019050602083039250611452565b6001836020036101000a038019825116818451168082178552505050505050905001915050908152602001604051809103902060010181905550816008856040518082805190602001908083835b6020831015156114ea57805182526020820191506020810190506020830392506114c5565b6001836020036101000a0380198251168184511680821785525050505050509050019150509081526020016040518091039020600101908051906020019061153392919061208e565b50826008856040518082805190602001908083835b60208310151561156d5780518252602082019150602081019050602083039250611548565b6001836020036101000a0380198251168184511680821785525050505050509050019150509081526020016040518091039020600201846040518082805190602001908083835b6020831015156115d957805182526020820191506020810190506020830392506115b4565b6001836020036101000a0380198251168184511680821785525050505050509050019150509081526020016040518091039020600001908051906020019061162292919061208e565b50806008856040518082805190602001908083835b60208310151561165c5780518252602082019150602081019050602083039250611637565b6001836020036101000a0380198251168184511680821785525050505050509050019150509081526020016040518091039020600201846040518082805190602001908083835b6020831015156116c857805182526020820191506020810190506020830392506116a3565b6001836020036101000a0380198251168184511680821785525050505050509050019150509081526020016040518091039020600201908051906020019061171192919061208e565b5050505050565b60068054600181600116156101000203166002900480601f0160208091040260200160405190810160405280929190818152602001828054600181600116156101000203166002900480156117ae5780601f10611783576101008083540402835291602001916117ae565b820191906000526020600020905b81548152906001019060200180831161179157829003601f168201915b505050505081565b60058054600181600116156101000203166002900480601f01602080910402602001604051908101604052809291908181526020018280546001816001161561010002031660029004801561184c5780601f106118215761010080835404028352916020019161184c565b820191906000526020600020905b81548152906001019060200180831161182f57829003601f168201915b505050505081565b600280600581111561186257fe5b14151561186e57600080fd5b6003600581111561187b57fe5b6008836040518082805190602001908083835b6020831015156118b3578051825260208201915060208101905060208303925061188e565b6001836020036101000a0380198251168184511680821785525050505050509050019150509081526020016040518091039020600201826040518082805190602001908083835b60208310151561191f57805182526020820191506020810190506020830392506118fa565b6001836020036101000a03801982511681845116808217855250505050505090500191505090815260200160405180910390206001018190555060036000806101000a81548160ff0219169083600581111561197757fe5b02179055505050565b600260009054906101000a900473ffffffffffffffffffffffffffffffffffffffff1681565b60028060058111156119b457fe5b1415156119c057600080fd5b600460058111156119cd57fe5b6008836040518082805190602001908083835b602083101515611a0557805182526020820191506020810190506020830392506119e0565b6001836020036101000a0380198251168184511680821785525050505050509050019150509081526020016040518091039020600201826040518082805190602001908083835b602083101515611a715780518252602082019150602081019050602083039250611a4c565b6001836020036101000a03801982511681845116808217855250505050505090500191505090815260200160405180910390206001018190555060046000806101000a81548160ff02191690836005811115611ac957fe5b02179055505050565b600160009054906101000a900473ffffffffffffffffffffffffffffffffffffffff1681565b600360009054906101000a900473ffffffffffffffffffffffffffffffffffffffff1681565b6000809054906101000a900460ff1681565b600760019054906101000a900473ffffffffffffffffffffffffffffffffffffffff1681565b600060019054906101000a900473ffffffffffffffffffffffffffffffffffffffff1681565b60606008826040518082805190602001908083835b602083101515611bb65780518252602082019150602081019050602083039250611b91565b6001836020036101000a03801982511681845116808217855250505050505090500191505090815260200160405180910390206001018054600181600116156101000203166002900480601f016020809104026020016040519081016040528092919081815260200182805460018160011615610100020316600290048015611c805780601f10611c5557610100808354040283529160200191611c80565b820191906000526020600020905b815481529060010190602001808311611c6357829003601f168201915b50505050509050919050565b826008846040518082805190602001908083835b602083101515611cc55780518252602082019150602081019050602083039250611ca0565b6001836020036101000a03801982511681845116808217855250505050505090500191505090815260200160405180910390206000019080519060200190611d0e92919061208e565b5060016005811115611d1c57fe5b6008846040518082805190602001908083835b602083101515611d545780518252602082019150602081019050602083039250611d2f565b6001836020036101000a0380198251168184511680821785525050505050509050019150509081526020016040518091039020600201836040518082805190602001908083835b602083101515611dc05780518252602082019150602081019050602083039250611d9b565b6001836020036101000a038019825116818451168082178552505050505050905001915050908152602001604051809103902060010181905550816008846040518082805190602001908083835b602083101515611e335780518252602082019150602081019050602083039250611e0e565b6001836020036101000a0380198251168184511680821785525050505050509050019150509081526020016040518091039020600201836040518082805190602001908083835b602083101515611e9f5780518252602082019150602081019050602083039250611e7a565b6001836020036101000a03801982511681845116808217855250505050505090500191505090815260200160405180910390206000019080519060200190611ee892919061208e565b50806008846040518082805190602001908083835b602083101515611f225780518252602082019150602081019050602083039250611efd565b6001836020036101000a0380198251168184511680821785525050505050509050019150509081526020016040518091039020600201836040518082805190602001908083835b602083101515611f8e5780518252602082019150602081019050602083039250611f69565b6001836020036101000a03801982511681845116808217855250505050505090500191505090815260200160405180910390206002019080519060200190611fd792919061208e565b50505050565b600760009054906101000a900460ff1681565b60048054600181600116156101000203166002900480601f0160208091040260200160405190810160405280929190818152602001828054600181600116156101000203166002900480156120865780601f1061205b57610100808354040283529160200191612086565b820191906000526020600020905b81548152906001019060200180831161206957829003601f168201915b505050505081565b828054600181600116156101000203166002900490600052602060002090601f016020900481019282601f106120cf57805160ff19168380011785556120fd565b828001600101855582156120fd579182015b828111156120fc5782518255916020019190600101906120e1565b5b50905061210a919061210e565b5090565b61213091905b8082111561212c576000816000905550600101612114565b5090565b905600a165627a7a72305820bf5e41649efd75ce8ddacce4e7772ba1327bbbb652c79d01adaf9dd0d3f9098e0029",
  "source": "pragma solidity ^0.4.23;\n\t\ncontract Farmer {\n    \n\t//Contract between the Farmer and the processing House to agree on the the Lot created & sent by the Farmer.\n\t//\"FMRID0001\",\"LOTID0002\",\"ok\"\n\t//\"FMRID0001\",\"LOTID0002\"\n\t//\"FMRID0001\",\"LOTID0002\",\"PHID0002\",\"ok\"\n\t\n\t//variables declaration\n\tenum AssetState { ContractCreated, AssetCreated, TransfertoPH, LotApprovedbyPH, LotRejectedbyPH, AcceptedRejectedlotCompleted }\n\n    AssetState public state;\n    address public  farmer;\n    address public  processingHouse;\n    address public  warehouse;\n    address public  distributor;\n    string public farmerID;\n\tstring public lotID;\n    string public phID;\n    bool public present;    \n    address public processor;\n    \n    modifier isFarmer() {\n        require(msg.sender == farmer);\n        _;\n    }\n\n    modifier isProcessingHouse() {\n        require(msg.sender == processingHouse);\n        _;\n    }\t\n\t\n    modifier isWarehouse() {\n        require(msg.sender == warehouse);\n        _;\n    }\n\n    modifier isDistributor() {\n        require(msg.sender == distributor);\n        _;\n    }\t\n\t\n\t//struct declaration for handling the PHLot details\n\tstruct farmerStruct {\n\t\tstring farmerID;\n\t\tstring phID;\n\t\tmapping(string => lotStruct) lotIDnum;\n\t}\n\t\t\n\tmapping(string => farmerStruct) farmerIDnum;\n\n\t//struct declaration for handling the WHLot details\n\tstruct lotStruct {\n\t\tstring lotID;\n\t\tuint state;\n\t\tstring reason;\n\t}\t\t   \n\t\n\t//constructor creation for farmer contract - called when Farmer initiates transaction by creating lotID\n\tconstructor () public {\n        state = AssetState.ContractCreated;\n    }      \n\t\n\t//Warehouse creates lotIDnum\t\n\tfunction createAsset(string _farmerIDnum, string _lotIDnum, string _reason) public{\n\t\tfarmerIDnum[_farmerIDnum].farmerID = _farmerIDnum;\n\t\tfarmerIDnum[_farmerIDnum].lotIDnum[_lotIDnum].state = uint(AssetState.AssetCreated);\n\n\t\tfarmerIDnum[_farmerIDnum].lotIDnum[_lotIDnum].lotID = _lotIDnum;\t\t\t\t\t\t\t\t\t\n\t\tfarmerIDnum[_farmerIDnum].lotIDnum[_lotIDnum].reason = _reason;\t\t\t\n\n\t}\n\n\t//Warehouse creates lotIDnum\t\n\tfunction transferAsset(string _farmerIDnum, string _lotIDnum, string _phID, string _reason) public{\n\t\tfarmerIDnum[_farmerIDnum].farmerID = _farmerIDnum;\n\t\tfarmerIDnum[_farmerIDnum].lotIDnum[_lotIDnum].state = uint(AssetState.TransfertoPH);\n\t\tfarmerIDnum[_farmerIDnum].phID = _phID;\n\n\t\tfarmerIDnum[_farmerIDnum].lotIDnum[_lotIDnum].lotID = _lotIDnum;\t\t\t\t\t\t\t\t\t\n\t\tfarmerIDnum[_farmerIDnum].lotIDnum[_lotIDnum].reason = _reason;\t\t\t\n\n\t}\n\n\t\t//ProcessingHouse receives the lotID sent by the farmer after auditing\n\tfunction phreceiveLot(string _farmerIDnum, string _lotIDnum) public {        \n\n\t\tif (uint(AssetState.TransfertoPH) != 2) {\n\t\t\trevert();\n\t\t}\t\t\t\n        \n        //Once agreed by the processingHouse, the new contract gets created which involves the life cycle of product including the ProcessingHouse/ Distributor/ Food service operator\n\t\t\t\t\n        farmerIDnum[_farmerIDnum].lotIDnum[_lotIDnum].state = uint(AssetState.LotApprovedbyPH);\n\t\tstate = AssetState.LotApprovedbyPH;\n\t\t\n    }    \t\n\t//ProcessingHouse rejects the lot sent by the farmer in case if the quality of the meat is not good\n\t\n\tfunction phrejectLot(string _farmerIDnum, string _lotIDnum) public {        \n\n\t\tif (uint(AssetState.TransfertoPH) != 2) {\n\t\t\trevert();\n\t\t}\n\t\tfarmerIDnum[_farmerIDnum].lotIDnum[_lotIDnum].state = uint(AssetState.LotRejectedbyPH);\t\t\t\n        state = AssetState.LotRejectedbyPH;\n    }    \t\n\n\t\n\t//anyone can read the lotIDnum\n\tfunction readsAsset(string _farmerIDnum, string _lotIDnum) public returns (string, string, uint,string,string) {\n\t\treturn (farmerIDnum[_farmerIDnum].farmerID,farmerIDnum[_farmerIDnum].lotIDnum[_lotIDnum].lotID,farmerIDnum[_farmerIDnum].lotIDnum[_lotIDnum].state,farmerIDnum[_farmerIDnum].phID,farmerIDnum[_farmerIDnum].lotIDnum[_lotIDnum].reason);\n\t}\t\n\n\t\n\t\t//anyone can read the lotIDnum\n\tfunction readAsset(string _farmerIDnum, string _lotIDnum) public returns (uint) {\n\t\treturn (farmerIDnum[_farmerIDnum].lotIDnum[_lotIDnum].state);\n\t}\t\n\n\n\tfunction getTarget(string _farmerIDnum) public returns (string) {\n\t\treturn (farmerIDnum[_farmerIDnum].phID);\n\t}\t\t\n}",
  "sourcePath": "/home/ec2-user/demooct22/V1_Oct22_2_24pm/contracts/Farmer.sol",
  "compiler": {
    "name": "solc",
    "version": "0.4.24+commit.e67f0147.Emscripten.clang"
  },
  "schemaVersion": "2.0.1",
  "updatedAt": "2018-10-25T09:20:10.141Z"
}