{
  "contractName": "FarmerInterface",
  "abi": [
    {
      "constant": true,
      "inputs": [
        {
          "name": "_farmerIDnum",
          "type": "string"
        },
        {
          "name": "_lotIDnum",
          "type": "string"
        }
      ],
      "name": "readAsset",
      "outputs": [
        {
          "name": "",
          "type": "uint256"
        }
      ],
      "payable": false,
      "stateMutability": "view",
      "type": "function"
    }
  ],
  "bytecode": "0x608060405234801561001057600080fd5b5061013d806100206000396000f300608060405260043610610041576000357c0100000000000000000000000000000000000000000000000000000000900463ffffffff16806309de0eb814610046575b600080fd5b34801561005257600080fd5b506100f3600480360381019080803590602001908201803590602001908080601f0160208091040260200160405190810160405280939291908181526020018383808284378201915050505050509192919290803590602001908201803590602001908080601f0160208091040260200160405190810160405280939291908181526020018383808284378201915050505050509192919290505050610109565b6040518082815260200191505060405180910390f35b6000929150505600a165627a7a72305820244f1fe2b0a10b79c8c2ec181ff192572fafff763e368f44d27259d9d8f8d29a0029",
  "source": "pragma solidity ^0.4.23;\n\ncontract FarmerInterface {\n  function readAsset(string _farmerIDnum, string _lotIDnum)\n    view\n    public\n    returns (uint)\n    {}\n}\n\ncontract Processor{\n\n\t//Variables declaration\n\tenum AssetsState { ContractCreated, AssetCreated, AssetTransferred, AssetApproved, AssetRejected, AssetRecall, Completed }\n\n    AssetsState public state;\t\n\n    address public  farmer;\n    address public  processingHouse;  \n\taddress public  warehouse;  \n\taddress public  distributor;  \n    string public farmerID;\n\tstring public phID;\n\tstring public lotID;\t\n\tstring public fmr_farmerID;\n\tstring public fmr_lotID;\n\tuint public fmr_state;\n\tstring public fmr_phID;\n\tstring public fmr_reason;\n\taddress farmeraddress;\n\tuint public assetread;\n\t\n\tFarmerInterface private exampleContract;\n\t\n    //farmerContract fmr;\n    modifier isFarmer() {\n        require(msg.sender == farmer);\n        _;\n    }\n\n    modifier isProcessingHouse() {\n        require(msg.sender == processingHouse);\n        _;\n    }\n\n    modifier isWarehouse() {\n        require(msg.sender == warehouse);\n        _;\n    }\n\n    modifier isDistributor() {\n        require(msg.sender == distributor);\n        _;\n    }\t\n\t\n\t//struct declaration for handling the PHLot details\n\tstruct phStruct {\n\t\tstring PHLotID;\n\t\tmapping(string => commonstruct) userID;\n\t\tmapping(string => whStruct) lotIDWH;\n\t}\n\t\t\n\tmapping(string => phStruct) lotIDPH;\n\n\t//struct declaration for handling the WHLot details\n\tstruct whStruct {\n\t\tstring whlotID;\t\n\t\tuint stateWH;\n        string reasonWH;\n\t\tmapping(string => distStruct) lotIDDist;        \n\t}\t\t\n\n\t//struct declaration for handling the WHLot details\n\tstruct distStruct {\n\t\tstring caselotID;\t\n\t\tuint stateDist;\n\t\tstring targetID;\n        string reasonDist;\t\t\n\t}\t\n\t\n\tstruct commonstruct {\n\t\tstring userIDnum;\n\t\tuint state;\n\t\tstring targetID;\n\t\tuint timeIn;\n\t\tuint timeOut;\n\t\tuint templotID;\n\t\tstring reason;\t\n\t}\n\n\tconstructor (address _farmerCntrtAddress) public {\n\tfarmeraddress = _farmerCntrtAddress;\n\texampleContract = FarmerInterface(farmeraddress);\n        state = AssetsState.ContractCreated;\n    }      \n\n\t/*function readAsset(string _farmerIDnum, string _lotIDnum) public returns (uint) {\n\t    Farmer contractOne = Farmer(farmeraddress);\n\t\tcontractOne.readAsset(_farmerIDnum,_lotIDnum);\n\t\treturn (fmr_farmerID,fmr_lotID,fmr_state,fmr_phID,fmr_reason);\n\t}\t*/\n\t\n\t//Warehouse creates lotIDWH\t\n\tfunction createAsset(string _lotIDPH, string _userID, string _reason) public{\n\t\tlotIDPH[_lotIDPH].PHLotID = _lotIDPH;\n\t\tlotIDPH[_lotIDPH].userID[_userID].userIDnum = _userID;\t\n\t\tlotIDPH[_lotIDPH].userID[_userID].state = uint(AssetsState.AssetCreated);\n\t\tlotIDPH[_lotIDPH].userID[_userID].reason = _reason;\t\n\t}\n\n\t//Warehouse creates lotIDWH\t\n\tfunction transferAsset(string _lotIDPH, string _userID, string _targetID) public{\n\t\t//lotIDPH[_lotIDPH].state = uint(AssetsState.TransfertoPH);\n\t\tlotIDPH[_lotIDPH].userID[_userID].targetID = _targetID;\n\t\tlotIDPH[_lotIDPH].userID[_userID].state = uint(AssetsState.AssetTransferred);\n\t}\n\n   function createWhAsset(string _lotIDPH, string _lotIDWH) public{\n\t\tlotIDPH[_lotIDPH].PHLotID = _lotIDPH;\n\t\tlotIDPH[_lotIDPH].lotIDWH[_lotIDWH].whlotID = _lotIDWH;\t\n\t\tlotIDPH[_lotIDPH].lotIDWH[_lotIDWH].stateWH = uint(AssetsState.AssetCreated);\n\t\t//lotIDPH[_lotIDPH].lotIDWH[_lotIDWH].reasonWH = _reason;\n\t\t\n   }\n\n\t//Warehouse creates lotIDWH\t\n\tfunction transferWhAsset(string _lotIDPH, string _lotIDWH, string _targetID) public{\n\t\t//lotIDPH[_lotIDPH].state = uint(AssetsState.TransfertoPH);\n\t\tif (uint(lotIDPH[_lotIDPH].lotIDWH[_lotIDWH].stateWH) == 5) {\n\t\t\trevert();\n\t\t}\t\t\t\n\t\tlotIDPH[_lotIDPH].userID[_lotIDWH].targetID = _targetID;\n\t\tlotIDPH[_lotIDPH].lotIDWH[_lotIDWH].stateWH = uint(AssetsState.AssetTransferred);\n\t}\n\n\t//Warehouse recall lotIDWH\t\n\tfunction recallWhAsset(string _lotIDPH, string _lotIDWH, string _reason) public{\n\t\t//lotIDPH[_lotIDPH].state = uint(AssetsState.TransfertoPH)\n\t\tlotIDPH[_lotIDPH].lotIDWH[_lotIDWH].stateWH = uint(AssetsState.AssetRecall);\n\t\tlotIDPH[_lotIDPH].lotIDWH[_lotIDWH].reasonWH = _reason;\n\t}\t\n\t\n\tfunction readWhAsset(string _lotIDPH, string _lotIDWH) public returns (uint) {\n\t\treturn (lotIDPH[_lotIDPH].lotIDWH[_lotIDWH].stateWH);\n\t}\t\n\n\t\t//ProcessingHouse receives the lotID sent by the farmer after auditing\n\tfunction whreceiveLot(string _lotIDPH, string _userID) public {        \n\n\t\tif (uint(lotIDPH[_lotIDPH].userID[_userID].state) != 2) {\n\t\t\trevert();\n\t\t}\t\t\t\n        \n        //Once agreed by the processingHouse, the new contract gets created which involves the life cycle of product including the ProcessingHouse/ Distributor/ Food service operator\n\t\t\t\t\n       lotIDPH[_lotIDPH].userID[_userID].state  = uint(AssetsState.AssetApproved);\n\t\n\t\t\n    }    \t\n\t//ProcessingHouse rejects the lot sent by the farmer in case if the quality of the meat is not good\n\t\n\tfunction whrejectLot(string _lotIDPH, string _userID) public {        \n\n\t\tif (uint(lotIDPH[_lotIDPH].userID[_userID].state) != 2) {\n\t\t\trevert();\n\t\t}\n\t\t lotIDPH[_lotIDPH].userID[_userID].state  = uint(AssetsState.AssetRejected);\t\t\t\n        \n    }    \t\n\t\n\t//anyone can read the lotIDWH\n\tfunction processReadAsset(string _lotIDPH, string _userID) public returns (string, string, uint, string, string) {\n\t\treturn (lotIDPH[_lotIDPH].PHLotID,lotIDPH[_lotIDPH].userID[_userID].userIDnum,lotIDPH[_lotIDPH].userID[_userID].state,lotIDPH[_lotIDPH].userID[_userID].targetID,lotIDPH[_lotIDPH].userID[_userID].reason);\n\t}\t\n\t\n\tfunction processState(string _lotIDPH, string _userID) public returns (uint) {\n\t\treturn (lotIDPH[_lotIDPH].userID[_userID].state);\n\t}\t\n\n/*\tfunction readAsset(string _farmerIDnum, string _lotIDnum) public returns (bool) {\n\t\tassetread = exampleContract.readAsset(_farmerIDnum, _lotIDnum);\n\t\treturn true;\n\t}\t\t*/\n//distributor starts\t\n   function createDistAsset(string _lotIDPH, string _lotIDWH, string _lotIDDist) public{\n\t\tlotIDPH[_lotIDPH].PHLotID = _lotIDPH;\n\t\tlotIDPH[_lotIDPH].lotIDWH[_lotIDWH].lotIDDist[_lotIDDist].caselotID = _lotIDWH;\t\n\t\tlotIDPH[_lotIDPH].lotIDWH[_lotIDWH].lotIDDist[_lotIDDist].stateDist = uint(AssetsState.AssetCreated);\n\t\t//lotIDPH[_lotIDPH].lotIDWH[_lotIDWH].reasonWH = _reason;\n\t\t\n   }\n\n\t//Warehouse creates lotIDWH\t\n\tfunction transferDistAsset(string _lotIDPH, string _lotIDWH, string _lotIDDist, string _targetID) public{\n\t\t//lotIDPH[_lotIDPH].state = uint(AssetsState.TransfertoPH);\n\t\tif (uint(lotIDPH[_lotIDPH].lotIDWH[_lotIDWH].lotIDDist[_lotIDDist].stateDist) == 5) {\n\t\t\trevert();\n\t\t}\t\t\t\n\t\tlotIDPH[_lotIDPH].lotIDWH[_lotIDWH].lotIDDist[_lotIDDist].targetID = _targetID;\n\t\tlotIDPH[_lotIDPH].lotIDWH[_lotIDWH].lotIDDist[_lotIDDist].stateDist = uint(AssetsState.AssetTransferred);\n\t}\n\n\t//Warehouse recall lotIDWH\t\n\tfunction recallDistAsset(string _lotIDPH, string _lotIDWH, string _lotIDDist, string _reason) public{\n\t\t//lotIDPH[_lotIDPH].state = uint(AssetsState.TransfertoPH)\n\t\tlotIDPH[_lotIDPH].lotIDWH[_lotIDWH].lotIDDist[_lotIDDist].stateDist = uint(AssetsState.AssetRecall);\n\t\tlotIDPH[_lotIDPH].lotIDWH[_lotIDWH].lotIDDist[_lotIDDist].reasonDist = _reason;\n\t}\t\n\t\n/*\tfunction readWhAsset(string _lotIDPH, string _lotIDWH, string _lotIDDist) public returns (uint) {\n\t\treturn (lotIDPH[_lotIDPH].lotIDWH[_lotIDWH].lotIDDist[_lotIDDist].stateDist);\n\t}\t*/\n\n\t\t//ProcessingHouse receives the lotID sent by the farmer after auditing\n\tfunction distreceiveLot(string _lotIDPH, string _lotIDWH) public {        \n\n\t\tif (uint(lotIDPH[_lotIDPH].lotIDWH[_lotIDWH].stateWH) != 2) {\n\t\t\trevert();\n\t\t}\t\t\t\n        \n        //Once agreed by the processingHouse, the new contract gets created which involves the life cycle of product including the ProcessingHouse/ Distributor/ Food service operator\n\t\t\t\t\n       lotIDPH[_lotIDPH].lotIDWH[_lotIDWH].stateWH  = uint(AssetsState.AssetApproved);\n\t\n\t\t\n    }    \t\n\t//ProcessingHouse rejects the lot sent by the farmer in case if the quality of the meat is not good\n\t\n\tfunction distrejectLot(string _lotIDPH, string _lotIDWH) public {        \n\n\t\tif (uint(lotIDPH[_lotIDPH].lotIDWH[_lotIDWH].stateWH) != 2) {\n\t\t\trevert();\n\t\t}\n\t\t lotIDPH[_lotIDPH].lotIDWH[_lotIDWH].stateWH  = uint(AssetsState.AssetRejected);\t\t\t\n        \n    }    \t\n\t\n\t//anyone can read the lotIDWH\n\tfunction distReadAsset(string _lotIDPH, string _lotIDWH, string _lotIDDist) public returns (string, string, uint, string) {\n\t\treturn (lotIDPH[_lotIDPH].PHLotID,lotIDPH[_lotIDPH].lotIDWH[_lotIDWH].lotIDDist[_lotIDDist].caselotID,lotIDPH[_lotIDPH].lotIDWH[_lotIDWH].lotIDDist[_lotIDDist].stateDist,lotIDPH[_lotIDPH].lotIDWH[_lotIDWH].lotIDDist[_lotIDDist].targetID);\n\t}\t\n\t\n\tfunction distState(string _lotIDPH, string _lotIDWH, string _lotIDDist) public returns (uint) {\n\t\treturn (lotIDPH[_lotIDPH].lotIDWH[_lotIDWH].lotIDDist[_lotIDDist].stateDist);\n\t}\t\t\n\t\n}",
  "sourcePath": "/home/ec2-user/demooct22/V1_Oct22_2_24pm/contracts/Processor.sol",
  "compiler": {
    "name": "solc",
    "version": "0.4.24+commit.e67f0147.Emscripten.clang"
  },
  "schemaVersion": "2.0.1",
  "updatedAt": "2018-10-25T09:18:17.307Z"
}