{
  "contractName": "Processor",
  "abi": [
    {
      "constant": true,
      "inputs": [],
      "name": "phID",
      "outputs": [
        {
          "name": "",
          "type": "string"
        }
      ],
      "payable": false,
      "stateMutability": "view",
      "type": "function"
    },
    {
      "constant": true,
      "inputs": [],
      "name": "lotID",
      "outputs": [
        {
          "name": "",
          "type": "string"
        }
      ],
      "payable": false,
      "stateMutability": "view",
      "type": "function"
    },
    {
      "constant": true,
      "inputs": [],
      "name": "fmr_state",
      "outputs": [
        {
          "name": "",
          "type": "uint256"
        }
      ],
      "payable": false,
      "stateMutability": "view",
      "type": "function"
    },
    {
      "constant": true,
      "inputs": [],
      "name": "fmr_phID",
      "outputs": [
        {
          "name": "",
          "type": "string"
        }
      ],
      "payable": false,
      "stateMutability": "view",
      "type": "function"
    },
    {
      "constant": true,
      "inputs": [],
      "name": "assetread",
      "outputs": [
        {
          "name": "",
          "type": "uint256"
        }
      ],
      "payable": false,
      "stateMutability": "view",
      "type": "function"
    },
    {
      "constant": true,
      "inputs": [],
      "name": "warehouse",
      "outputs": [
        {
          "name": "",
          "type": "address"
        }
      ],
      "payable": false,
      "stateMutability": "view",
      "type": "function"
    },
    {
      "constant": true,
      "inputs": [],
      "name": "processingHouse",
      "outputs": [
        {
          "name": "",
          "type": "address"
        }
      ],
      "payable": false,
      "stateMutability": "view",
      "type": "function"
    },
    {
      "constant": true,
      "inputs": [],
      "name": "distributor",
      "outputs": [
        {
          "name": "",
          "type": "address"
        }
      ],
      "payable": false,
      "stateMutability": "view",
      "type": "function"
    },
    {
      "constant": true,
      "inputs": [],
      "name": "state",
      "outputs": [
        {
          "name": "",
          "type": "uint8"
        }
      ],
      "payable": false,
      "stateMutability": "view",
      "type": "function"
    },
    {
      "constant": true,
      "inputs": [],
      "name": "fmr_farmerID",
      "outputs": [
        {
          "name": "",
          "type": "string"
        }
      ],
      "payable": false,
      "stateMutability": "view",
      "type": "function"
    },
    {
      "constant": true,
      "inputs": [],
      "name": "fmr_lotID",
      "outputs": [
        {
          "name": "",
          "type": "string"
        }
      ],
      "payable": false,
      "stateMutability": "view",
      "type": "function"
    },
    {
      "constant": true,
      "inputs": [],
      "name": "farmer",
      "outputs": [
        {
          "name": "",
          "type": "address"
        }
      ],
      "payable": false,
      "stateMutability": "view",
      "type": "function"
    },
    {
      "constant": true,
      "inputs": [],
      "name": "farmerID",
      "outputs": [
        {
          "name": "",
          "type": "string"
        }
      ],
      "payable": false,
      "stateMutability": "view",
      "type": "function"
    },
    {
      "constant": true,
      "inputs": [],
      "name": "fmr_reason",
      "outputs": [
        {
          "name": "",
          "type": "string"
        }
      ],
      "payable": false,
      "stateMutability": "view",
      "type": "function"
    },
    {
      "inputs": [
        {
          "name": "_farmerCntrtAddress",
          "type": "address"
        }
      ],
      "payable": false,
      "stateMutability": "nonpayable",
      "type": "constructor"
    },
    {
      "constant": false,
      "inputs": [
        {
          "name": "_lotIDPH",
          "type": "string"
        },
        {
          "name": "_userID",
          "type": "string"
        },
        {
          "name": "_reason",
          "type": "string"
        }
      ],
      "name": "createAsset",
      "outputs": [],
      "payable": false,
      "stateMutability": "nonpayable",
      "type": "function"
    },
    {
      "constant": false,
      "inputs": [
        {
          "name": "_lotIDPH",
          "type": "string"
        },
        {
          "name": "_userID",
          "type": "string"
        },
        {
          "name": "_targetID",
          "type": "string"
        }
      ],
      "name": "transferAsset",
      "outputs": [],
      "payable": false,
      "stateMutability": "nonpayable",
      "type": "function"
    },
    {
      "constant": false,
      "inputs": [
        {
          "name": "_lotIDPH",
          "type": "string"
        },
        {
          "name": "_lotIDWH",
          "type": "string"
        }
      ],
      "name": "createWhAsset",
      "outputs": [],
      "payable": false,
      "stateMutability": "nonpayable",
      "type": "function"
    },
    {
      "constant": false,
      "inputs": [
        {
          "name": "_lotIDPH",
          "type": "string"
        },
        {
          "name": "_lotIDWH",
          "type": "string"
        },
        {
          "name": "_targetID",
          "type": "string"
        }
      ],
      "name": "transferWhAsset",
      "outputs": [],
      "payable": false,
      "stateMutability": "nonpayable",
      "type": "function"
    },
    {
      "constant": false,
      "inputs": [
        {
          "name": "_lotIDPH",
          "type": "string"
        },
        {
          "name": "_lotIDWH",
          "type": "string"
        },
        {
          "name": "_reason",
          "type": "string"
        }
      ],
      "name": "recallWhAsset",
      "outputs": [],
      "payable": false,
      "stateMutability": "nonpayable",
      "type": "function"
    },
    {
      "constant": false,
      "inputs": [
        {
          "name": "_lotIDPH",
          "type": "string"
        },
        {
          "name": "_lotIDWH",
          "type": "string"
        }
      ],
      "name": "readWhAsset",
      "outputs": [
        {
          "name": "",
          "type": "uint256"
        }
      ],
      "payable": false,
      "stateMutability": "nonpayable",
      "type": "function"
    },
    {
      "constant": false,
      "inputs": [
        {
          "name": "_lotIDPH",
          "type": "string"
        },
        {
          "name": "_userID",
          "type": "string"
        }
      ],
      "name": "whreceiveLot",
      "outputs": [],
      "payable": false,
      "stateMutability": "nonpayable",
      "type": "function"
    },
    {
      "constant": false,
      "inputs": [
        {
          "name": "_lotIDPH",
          "type": "string"
        },
        {
          "name": "_userID",
          "type": "string"
        }
      ],
      "name": "whrejectLot",
      "outputs": [],
      "payable": false,
      "stateMutability": "nonpayable",
      "type": "function"
    },
    {
      "constant": false,
      "inputs": [
        {
          "name": "_lotIDPH",
          "type": "string"
        },
        {
          "name": "_userID",
          "type": "string"
        }
      ],
      "name": "processReadAsset",
      "outputs": [
        {
          "name": "",
          "type": "string"
        },
        {
          "name": "",
          "type": "string"
        },
        {
          "name": "",
          "type": "uint256"
        },
        {
          "name": "",
          "type": "string"
        },
        {
          "name": "",
          "type": "string"
        }
      ],
      "payable": false,
      "stateMutability": "nonpayable",
      "type": "function"
    },
    {
      "constant": false,
      "inputs": [
        {
          "name": "_lotIDPH",
          "type": "string"
        },
        {
          "name": "_userID",
          "type": "string"
        }
      ],
      "name": "processState",
      "outputs": [
        {
          "name": "",
          "type": "uint256"
        }
      ],
      "payable": false,
      "stateMutability": "nonpayable",
      "type": "function"
    },
    {
      "constant": false,
      "inputs": [
        {
          "name": "_lotIDPH",
          "type": "string"
        },
        {
          "name": "_lotIDWH",
          "type": "string"
        },
        {
          "name": "_lotIDDist",
          "type": "string"
        }
      ],
      "name": "createDistAsset",
      "outputs": [],
      "payable": false,
      "stateMutability": "nonpayable",
      "type": "function"
    },
    {
      "constant": false,
      "inputs": [
        {
          "name": "_lotIDPH",
          "type": "string"
        },
        {
          "name": "_lotIDWH",
          "type": "string"
        },
        {
          "name": "_lotIDDist",
          "type": "string"
        },
        {
          "name": "_targetID",
          "type": "string"
        }
      ],
      "name": "transferDistAsset",
      "outputs": [],
      "payable": false,
      "stateMutability": "nonpayable",
      "type": "function"
    },
    {
      "constant": false,
      "inputs": [
        {
          "name": "_lotIDPH",
          "type": "string"
        },
        {
          "name": "_lotIDWH",
          "type": "string"
        },
        {
          "name": "_lotIDDist",
          "type": "string"
        },
        {
          "name": "_reason",
          "type": "string"
        }
      ],
      "name": "recallDistAsset",
      "outputs": [],
      "payable": false,
      "stateMutability": "nonpayable",
      "type": "function"
    },
    {
      "constant": false,
      "inputs": [
        {
          "name": "_lotIDPH",
          "type": "string"
        },
        {
          "name": "_lotIDWH",
          "type": "string"
        }
      ],
      "name": "distreceiveLot",
      "outputs": [],
      "payable": false,
      "stateMutability": "nonpayable",
      "type": "function"
    },
    {
      "constant": false,
      "inputs": [
        {
          "name": "_lotIDPH",
          "type": "string"
        },
        {
          "name": "_lotIDWH",
          "type": "string"
        }
      ],
      "name": "distrejectLot",
      "outputs": [],
      "payable": false,
      "stateMutability": "nonpayable",
      "type": "function"
    },
    {
      "constant": false,
      "inputs": [
        {
          "name": "_lotIDPH",
          "type": "string"
        },
        {
          "name": "_lotIDWH",
          "type": "string"
        },
        {
          "name": "_lotIDDist",
          "type": "string"
        }
      ],
      "name": "distReadAsset",
      "outputs": [
        {
          "name": "",
          "type": "string"
        },
        {
          "name": "",
          "type": "string"
        },
        {
          "name": "",
          "type": "uint256"
        },
        {
          "name": "",
          "type": "string"
        }
      ],
      "payable": false,
      "stateMutability": "nonpayable",
      "type": "function"
    },
    {
      "constant": false,
      "inputs": [
        {
          "name": "_lotIDPH",
          "type": "string"
        },
        {
          "name": "_lotIDWH",
          "type": "string"
        },
        {
          "name": "_lotIDDist",
          "type": "string"
        }
      ],
      "name": "distState",
      "outputs": [
        {
          "name": "",
          "type": "uint256"
        }
      ],
      "payable": false,
      "stateMutability": "nonpayable",
      "type": "function"
    }
  ],
  "bytecode": "0x608060405234801561001057600080fd5b5060405160208062004d8a8339810180604052810190808051906020019092919050505080600c60006101000a81548173ffffffffffffffffffffffffffffffffffffffff021916908373ffffffffffffffffffffffffffffffffffffffff160217905550600c60009054906101000a900473ffffffffffffffffffffffffffffffffffffffff16600e60006101000a81548173ffffffffffffffffffffffffffffffffffffffff021916908373ffffffffffffffffffffffffffffffffffffffff16021790555060008060006101000a81548160ff021916908360068111156100f657fe5b021790555050614c7e806200010c6000396000f30060806040526004361061018b576000357c0100000000000000000000000000000000000000000000000000000000900463ffffffff168063080374b0146101905780631f3aba5b1461028557806320dbb88f146103c057806325d77728146106335780634cb7307a1461088057806355128f7414610989578063571cc7de14610ac457806359f6c6c814610b87578063651dd82e14610c17578063661beaa514610ca75780636838549d14610d6a5780637682635114610e195780637b0dc7c514610e4457806393cc4a1c14610ed457806394e7252d14610eff57806399c1d32d14610fae5780639b6227691461105d578063a44928b0146110b4578063b8f656e3146111a9578063b9b9fe5314611258578063bf39d5e714611307578063bfe109281461135e578063c19d93fb146113b5578063c5eb73b5146113ee578063c622f217146114e3578063cc773a7b14611573578063d811fcf014611603578063de58d1561461165a578063e515f39b1461174f578063f6c3400914611844578063fc20b2db146118d4575b600080fd5b34801561019c57600080fd5b50610283600480360381019080803590602001908201803590602001908080601f0160208091040260200160405190810160405280939291908181526020018383808284378201915050505050509192919290803590602001908201803590602001908080601f0160208091040260200160405190810160405280939291908181526020018383808284378201915050505050509192919290803590602001908201803590602001908080601f0160208091040260200160405190810160405280939291908181526020018383808284378201915050505050509192919290505050611964565b005b34801561029157600080fd5b506103be600480360381019080803590602001908201803590602001908080601f0160208091040260200160405190810160405280939291908181526020018383808284378201915050505050509192919290803590602001908201803590602001908080601f0160208091040260200160405190810160405280939291908181526020018383808284378201915050505050509192919290803590602001908201803590602001908080601f0160208091040260200160405190810160405280939291908181526020018383808284378201915050505050509192919290803590602001908201803590602001908080601f0160208091040260200160405190810160405280939291908181526020018383808284378201915050505050509192919290505050611b43565b005b3480156103cc57600080fd5b5061046d600480360381019080803590602001908201803590602001908080601f0160208091040260200160405190810160405280939291908181526020018383808284378201915050505050509192919290803590602001908201803590602001908080601f0160208091040260200160405190810160405280939291908181526020018383808284378201915050505050509192919290505050611f4f565b604051808060200180602001868152602001806020018060200185810385528a818151815260200191508051906020019080838360005b838110156104bf5780820151818401526020810190506104a4565b50505050905090810190601f1680156104ec5780820380516001836020036101000a031916815260200191505b50858103845289818151815260200191508051906020019080838360005b8381101561052557808201518184015260208101905061050a565b50505050905090810190601f1680156105525780820380516001836020036101000a031916815260200191505b50858103835287818151815260200191508051906020019080838360005b8381101561058b578082015181840152602081019050610570565b50505050905090810190601f1680156105b85780820380516001836020036101000a031916815260200191505b50858103825286818151815260200191508051906020019080838360005b838110156105f15780820151818401526020810190506105d6565b50505050905090810190601f16801561061e5780820380516001836020036101000a031916815260200191505b50995050505050505050505060405180910390f35b34801561063f57600080fd5b50610726600480360381019080803590602001908201803590602001908080601f0160208091040260200160405190810160405280939291908181526020018383808284378201915050505050509192919290803590602001908201803590602001908080601f0160208091040260200160405190810160405280939291908181526020018383808284378201915050505050509192919290803590602001908201803590602001908080601f01602080910402602001604051908101604052809392919081815260200183838082843782019150505050505091929192905050506125b2565b60405180806020018060200185815260200180602001848103845288818151815260200191508051906020019080838360005b83811015610774578082015181840152602081019050610759565b50505050905090810190601f1680156107a15780820380516001836020036101000a031916815260200191505b50848103835287818151815260200191508051906020019080838360005b838110156107da5780820151818401526020810190506107bf565b50505050905090810190601f1680156108075780820380516001836020036101000a031916815260200191505b50848103825285818151815260200191508051906020019080838360005b83811015610840578082015181840152602081019050610825565b50505050905090810190601f16801561086d5780820380516001836020036101000a031916815260200191505b5097505050505050505060405180910390f35b34801561088c57600080fd5b50610973600480360381019080803590602001908201803590602001908080601f0160208091040260200160405190810160405280939291908181526020018383808284378201915050505050509192919290803590602001908201803590602001908080601f0160208091040260200160405190810160405280939291908181526020018383808284378201915050505050509192919290803590602001908201803590602001908080601f0160208091040260200160405190810160405280939291908181526020018383808284378201915050505050509192919290505050612bdf565b6040518082815260200191505060405180910390f35b34801561099557600080fd5b50610ac2600480360381019080803590602001908201803590602001908080601f0160208091040260200160405190810160405280939291908181526020018383808284378201915050505050509192919290803590602001908201803590602001908080601f0160208091040260200160405190810160405280939291908181526020018383808284378201915050505050509192919290803590602001908201803590602001908080601f0160208091040260200160405190810160405280939291908181526020018383808284378201915050505050509192919290803590602001908201803590602001908080601f0160208091040260200160405190810160405280939291908181526020018383808284378201915050505050509192919290505050612d31565b005b348015610ad057600080fd5b50610b71600480360381019080803590602001908201803590602001908080601f0160208091040260200160405190810160405280939291908181526020018383808284378201915050505050509192919290803590602001908201803590602001908080601f0160208091040260200160405190810160405280939291908181526020018383808284378201915050505050509192919290505050612fe9565b6040518082815260200191505060405180910390f35b348015610b9357600080fd5b50610b9c6130ce565b6040518080602001828103825283818151815260200191508051906020019080838360005b83811015610bdc578082015181840152602081019050610bc1565b50505050905090810190601f168015610c095780820380516001836020036101000a031916815260200191505b509250505060405180910390f35b348015610c2357600080fd5b50610c2c61316c565b6040518080602001828103825283818151815260200191508051906020019080838360005b83811015610c6c578082015181840152602081019050610c51565b50505050905090810190601f168015610c995780820380516001836020036101000a031916815260200191505b509250505060405180910390f35b348015610cb357600080fd5b50610d54600480360381019080803590602001908201803590602001908080601f0160208091040260200160405190810160405280939291908181526020018383808284378201915050505050509192919290803590602001908201803590602001908080601f016020809104026020016040519081016040528093929190818152602001838380828437820191505050505050919291929050505061320a565b6040518082815260200191505060405180910390f35b348015610d7657600080fd5b50610e17600480360381019080803590602001908201803590602001908080601f0160208091040260200160405190810160405280939291908181526020018383808284378201915050505050509192919290803590602001908201803590602001908080601f01602080910402602001604051908101604052809392919081815260200183838082843782019150505050505091929192905050506132ef565b005b348015610e2557600080fd5b50610e2e613550565b6040518082815260200191505060405180910390f35b348015610e5057600080fd5b50610e59613556565b6040518080602001828103825283818151815260200191508051906020019080838360005b83811015610e99578082015181840152602081019050610e7e565b50505050905090810190601f168015610ec65780820380516001836020036101000a031916815260200191505b509250505060405180910390f35b348015610ee057600080fd5b50610ee96135f4565b6040518082815260200191505060405180910390f35b348015610f0b57600080fd5b50610fac600480360381019080803590602001908201803590602001908080601f0160208091040260200160405190810160405280939291908181526020018383808284378201915050505050509192919290803590602001908201803590602001908080601f01602080910402602001604051908101604052809392919081815260200183838082843782019150505050505091929192905050506135fa565b005b348015610fba57600080fd5b5061105b600480360381019080803590602001908201803590602001908080601f0160208091040260200160405190810160405280939291908181526020018383808284378201915050505050509192919290803590602001908201803590602001908080601f01602080910402602001604051908101604052809392919081815260200183838082843782019150505050505091929192905050506137d2565b005b34801561106957600080fd5b506110726139aa565b604051808273ffffffffffffffffffffffffffffffffffffffff1673ffffffffffffffffffffffffffffffffffffffff16815260200191505060405180910390f35b3480156110c057600080fd5b506111a7600480360381019080803590602001908201803590602001908080601f0160208091040260200160405190810160405280939291908181526020018383808284378201915050505050509192919290803590602001908201803590602001908080601f0160208091040260200160405190810160405280939291908181526020018383808284378201915050505050509192919290803590602001908201803590602001908080601f01602080910402602001604051908101604052809392919081815260200183838082843782019150505050505091929192905050506139d0565b005b3480156111b557600080fd5b50611256600480360381019080803590602001908201803590602001908080601f0160208091040260200160405190810160405280939291908181526020018383808284378201915050505050509192919290803590602001908201803590602001908080601f0160208091040260200160405190810160405280939291908181526020018383808284378201915050505050509192919290505050613baf565b005b34801561126457600080fd5b50611305600480360381019080803590602001908201803590602001908080601f0160208091040260200160405190810160405280939291908181526020018383808284378201915050505050509192919290803590602001908201803590602001908080601f0160208091040260200160405190810160405280939291908181526020018383808284378201915050505050509192919290505050613d87565b005b34801561131357600080fd5b5061131c613f5f565b604051808273ffffffffffffffffffffffffffffffffffffffff1673ffffffffffffffffffffffffffffffffffffffff16815260200191505060405180910390f35b34801561136a57600080fd5b50611373613f85565b604051808273ffffffffffffffffffffffffffffffffffffffff1673ffffffffffffffffffffffffffffffffffffffff16815260200191505060405180910390f35b3480156113c157600080fd5b506113ca613fab565b604051808260068111156113da57fe5b60ff16815260200191505060405180910390f35b3480156113fa57600080fd5b506114e1600480360381019080803590602001908201803590602001908080601f0160208091040260200160405190810160405280939291908181526020018383808284378201915050505050509192919290803590602001908201803590602001908080601f0160208091040260200160405190810160405280939291908181526020018383808284378201915050505050509192919290803590602001908201803590602001908080601f0160208091040260200160405190810160405280939291908181526020018383808284378201915050505050509192919290505050613fbd565b005b3480156114ef57600080fd5b506114f86142f7565b6040518080602001828103825283818151815260200191508051906020019080838360005b8381101561153857808201518184015260208101905061151d565b50505050905090810190601f1680156115655780820380516001836020036101000a031916815260200191505b509250505060405180910390f35b34801561157f57600080fd5b50611588614395565b6040518080602001828103825283818151815260200191508051906020019080838360005b838110156115c85780820151818401526020810190506115ad565b50505050905090810190601f1680156115f55780820380516001836020036101000a031916815260200191505b509250505060405180910390f35b34801561160f57600080fd5b50611618614433565b604051808273ffffffffffffffffffffffffffffffffffffffff1673ffffffffffffffffffffffffffffffffffffffff16815260200191505060405180910390f35b34801561166657600080fd5b5061174d600480360381019080803590602001908201803590602001908080601f0160208091040260200160405190810160405280939291908181526020018383808284378201915050505050509192919290803590602001908201803590602001908080601f0160208091040260200160405190810160405280939291908181526020018383808284378201915050505050509192919290803590602001908201803590602001908080601f0160208091040260200160405190810160405280939291908181526020018383808284378201915050505050509192919290505050614459565b005b34801561175b57600080fd5b50611842600480360381019080803590602001908201803590602001908080601f0160208091040260200160405190810160405280939291908181526020018383808284378201915050505050509192919290803590602001908201803590602001908080601f0160208091040260200160405190810160405280939291908181526020018383808284378201915050505050509192919290803590602001908201803590602001908080601f01602080910402602001604051908101604052809392919081815260200183838082843782019150505050505091929192905050506147aa565b005b34801561185057600080fd5b50611859614a71565b6040518080602001828103825283818151815260200191508051906020019080838360005b8381101561189957808201518184015260208101905061187e565b50505050905090810190601f1680156118c65780820380516001836020036101000a031916815260200191505b509250505060405180910390f35b3480156118e057600080fd5b506118e9614b0f565b6040518080602001828103825283818151815260200191508051906020019080838360005b8381101561192957808201518184015260208101905061190e565b50505050905090810190601f1680156119565780820380516001836020036101000a031916815260200191505b509250505060405180910390f35b6005600681111561197157fe5b600f846040518082805190602001908083835b6020831015156119a95780518252602082019150602081019050602083039250611984565b6001836020036101000a0380198251168184511680821785525050505050509050019150509081526020016040518091039020600201836040518082805190602001908083835b602083101515611a1557805182526020820191506020810190506020830392506119f0565b6001836020036101000a03801982511681845116808217855250505050505090500191505090815260200160405180910390206001018190555080600f846040518082805190602001908083835b602083101515611a885780518252602082019150602081019050602083039250611a63565b6001836020036101000a0380198251168184511680821785525050505050509050019150509081526020016040518091039020600201836040518082805190602001908083835b602083101515611af45780518252602082019150602081019050602083039250611acf565b6001836020036101000a03801982511681845116808217855250505050505090500191505090815260200160405180910390206002019080519060200190611b3d929190614bad565b50505050565b6005600f856040518082805190602001908083835b602083101515611b7d5780518252602082019150602081019050602083039250611b58565b6001836020036101000a0380198251168184511680821785525050505050509050019150509081526020016040518091039020600201846040518082805190602001908083835b602083101515611be95780518252602082019150602081019050602083039250611bc4565b6001836020036101000a0380198251168184511680821785525050505050509050019150509081526020016040518091039020600301836040518082805190602001908083835b602083101515611c555780518252602082019150602081019050602083039250611c30565b6001836020036101000a0380198251168184511680821785525050505050509050019150509081526020016040518091039020600101541415611c9757600080fd5b80600f856040518082805190602001908083835b602083101515611cd05780518252602082019150602081019050602083039250611cab565b6001836020036101000a0380198251168184511680821785525050505050509050019150509081526020016040518091039020600201846040518082805190602001908083835b602083101515611d3c5780518252602082019150602081019050602083039250611d17565b6001836020036101000a0380198251168184511680821785525050505050509050019150509081526020016040518091039020600301836040518082805190602001908083835b602083101515611da85780518252602082019150602081019050602083039250611d83565b6001836020036101000a03801982511681845116808217855250505050505090500191505090815260200160405180910390206002019080519060200190611df1929190614bad565b5060026006811115611dff57fe5b600f856040518082805190602001908083835b602083101515611e375780518252602082019150602081019050602083039250611e12565b6001836020036101000a0380198251168184511680821785525050505050509050019150509081526020016040518091039020600201846040518082805190602001908083835b602083101515611ea35780518252602082019150602081019050602083039250611e7e565b6001836020036101000a0380198251168184511680821785525050505050509050019150509081526020016040518091039020600301836040518082805190602001908083835b602083101515611f0f5780518252602082019150602081019050602083039250611eea565b6001836020036101000a03801982511681845116808217855250505050505090500191505090815260200160405180910390206001018190555050505050565b6060806000606080600f876040518082805190602001908083835b602083101515611f8f5780518252602082019150602081019050602083039250611f6a565b6001836020036101000a0380198251168184511680821785525050505050509050019150509081526020016040518091039020600001600f886040518082805190602001908083835b602083101515611ffd5780518252602082019150602081019050602083039250611fd8565b6001836020036101000a0380198251168184511680821785525050505050509050019150509081526020016040518091039020600101876040518082805190602001908083835b6020831015156120695780518252602082019150602081019050602083039250612044565b6001836020036101000a0380198251168184511680821785525050505050509050019150509081526020016040518091039020600001600f896040518082805190602001908083835b6020831015156120d757805182526020820191506020810190506020830392506120b2565b6001836020036101000a0380198251168184511680821785525050505050509050019150509081526020016040518091039020600101886040518082805190602001908083835b602083101515612143578051825260208201915060208101905060208303925061211e565b6001836020036101000a038019825116818451168082178552505050505050905001915050908152602001604051809103902060010154600f8a6040518082805190602001908083835b6020831015156121b2578051825260208201915060208101905060208303925061218d565b6001836020036101000a0380198251168184511680821785525050505050509050019150509081526020016040518091039020600101896040518082805190602001908083835b60208310151561221e57805182526020820191506020810190506020830392506121f9565b6001836020036101000a0380198251168184511680821785525050505050509050019150509081526020016040518091039020600201600f8b6040518082805190602001908083835b60208310151561228c5780518252602082019150602081019050602083039250612267565b6001836020036101000a03801982511681845116808217855250505050505090500191505090815260200160405180910390206001018a6040518082805190602001908083835b6020831015156122f857805182526020820191506020810190506020830392506122d3565b6001836020036101000a0380198251168184511680821785525050505050509050019150509081526020016040518091039020600601848054600181600116156101000203166002900480601f0160208091040260200160405190810160405280929190818152602001828054600181600116156101000203166002900480156123c35780601f10612398576101008083540402835291602001916123c3565b820191906000526020600020905b8154815290600101906020018083116123a657829003601f168201915b50505050509450838054600181600116156101000203166002900480601f01602080910402602001604051908101604052809291908181526020018280546001816001161561010002031660029004801561245f5780601f106124345761010080835404028352916020019161245f565b820191906000526020600020905b81548152906001019060200180831161244257829003601f168201915b50505050509350818054600181600116156101000203166002900480601f0160208091040260200160405190810160405280929190818152602001828054600181600116156101000203166002900480156124fb5780601f106124d0576101008083540402835291602001916124fb565b820191906000526020600020905b8154815290600101906020018083116124de57829003601f168201915b50505050509150808054600181600116156101000203166002900480601f0160208091040260200160405190810160405280929190818152602001828054600181600116156101000203166002900480156125975780601f1061256c57610100808354040283529160200191612597565b820191906000526020600020905b81548152906001019060200180831161257a57829003601f168201915b50505050509050945094509450945094509295509295909350565b60608060006060600f876040518082805190602001908083835b6020831015156125f157805182526020820191506020810190506020830392506125cc565b6001836020036101000a0380198251168184511680821785525050505050509050019150509081526020016040518091039020600001600f886040518082805190602001908083835b60208310151561265f578051825260208201915060208101905060208303925061263a565b6001836020036101000a0380198251168184511680821785525050505050509050019150509081526020016040518091039020600201876040518082805190602001908083835b6020831015156126cb57805182526020820191506020810190506020830392506126a6565b6001836020036101000a0380198251168184511680821785525050505050509050019150509081526020016040518091039020600301866040518082805190602001908083835b6020831015156127375780518252602082019150602081019050602083039250612712565b6001836020036101000a0380198251168184511680821785525050505050509050019150509081526020016040518091039020600001600f896040518082805190602001908083835b6020831015156127a55780518252602082019150602081019050602083039250612780565b6001836020036101000a0380198251168184511680821785525050505050509050019150509081526020016040518091039020600201886040518082805190602001908083835b60208310151561281157805182526020820191506020810190506020830392506127ec565b6001836020036101000a0380198251168184511680821785525050505050509050019150509081526020016040518091039020600301876040518082805190602001908083835b60208310151561287d5780518252602082019150602081019050602083039250612858565b6001836020036101000a038019825116818451168082178552505050505050905001915050908152602001604051809103902060010154600f8a6040518082805190602001908083835b6020831015156128ec57805182526020820191506020810190506020830392506128c7565b6001836020036101000a0380198251168184511680821785525050505050509050019150509081526020016040518091039020600201896040518082805190602001908083835b6020831015156129585780518252602082019150602081019050602083039250612933565b6001836020036101000a0380198251168184511680821785525050505050509050019150509081526020016040518091039020600301886040518082805190602001908083835b6020831015156129c4578051825260208201915060208101905060208303925061299f565b6001836020036101000a0380198251168184511680821785525050505050509050019150509081526020016040518091039020600201838054600181600116156101000203166002900480601f016020809104026020016040519081016040528092919081815260200182805460018160011615610100020316600290048015612a8f5780601f10612a6457610100808354040283529160200191612a8f565b820191906000526020600020905b815481529060010190602001808311612a7257829003601f168201915b50505050509350828054600181600116156101000203166002900480601f016020809104026020016040519081016040528092919081815260200182805460018160011615610100020316600290048015612b2b5780601f10612b0057610100808354040283529160200191612b2b565b820191906000526020600020905b815481529060010190602001808311612b0e57829003601f168201915b50505050509250808054600181600116156101000203166002900480601f016020809104026020016040519081016040528092919081815260200182805460018160011615610100020316600290048015612bc75780601f10612b9c57610100808354040283529160200191612bc7565b820191906000526020600020905b815481529060010190602001808311612baa57829003601f168201915b50505050509050935093509350935093509350935093565b6000600f846040518082805190602001908083835b602083101515612c195780518252602082019150602081019050602083039250612bf4565b6001836020036101000a0380198251168184511680821785525050505050509050019150509081526020016040518091039020600201836040518082805190602001908083835b602083101515612c855780518252602082019150602081019050602083039250612c60565b6001836020036101000a0380198251168184511680821785525050505050509050019150509081526020016040518091039020600301826040518082805190602001908083835b602083101515612cf15780518252602082019150602081019050602083039250612ccc565b6001836020036101000a03801982511681845116808217855250505050505090500191505090815260200160405180910390206001015490509392505050565b60056006811115612d3e57fe5b600f856040518082805190602001908083835b602083101515612d765780518252602082019150602081019050602083039250612d51565b6001836020036101000a0380198251168184511680821785525050505050509050019150509081526020016040518091039020600201846040518082805190602001908083835b602083101515612de25780518252602082019150602081019050602083039250612dbd565b6001836020036101000a0380198251168184511680821785525050505050509050019150509081526020016040518091039020600301836040518082805190602001908083835b602083101515612e4e5780518252602082019150602081019050602083039250612e29565b6001836020036101000a03801982511681845116808217855250505050505090500191505090815260200160405180910390206001018190555080600f856040518082805190602001908083835b602083101515612ec15780518252602082019150602081019050602083039250612e9c565b6001836020036101000a0380198251168184511680821785525050505050509050019150509081526020016040518091039020600201846040518082805190602001908083835b602083101515612f2d5780518252602082019150602081019050602083039250612f08565b6001836020036101000a0380198251168184511680821785525050505050509050019150509081526020016040518091039020600301836040518082805190602001908083835b602083101515612f995780518252602082019150602081019050602083039250612f74565b6001836020036101000a03801982511681845116808217855250505050505090500191505090815260200160405180910390206003019080519060200190612fe2929190614bad565b5050505050565b6000600f836040518082805190602001908083835b6020831015156130235780518252602082019150602081019050602083039250612ffe565b6001836020036101000a0380198251168184511680821785525050505050509050019150509081526020016040518091039020600201826040518082805190602001908083835b60208310151561308f578051825260208201915060208101905060208303925061306a565b6001836020036101000a038019825116818451168082178552505050505050905001915050908152602001604051809103902060010154905092915050565b60058054600181600116156101000203166002900480601f0160208091040260200160405190810160405280929190818152602001828054600181600116156101000203166002900480156131645780601f1061313957610100808354040283529160200191613164565b820191906000526020600020905b81548152906001019060200180831161314757829003601f168201915b505050505081565b60068054600181600116156101000203166002900480601f0160208091040260200160405190810160405280929190818152602001828054600181600116156101000203166002900480156132025780601f106131d757610100808354040283529160200191613202565b820191906000526020600020905b8154815290600101906020018083116131e557829003601f168201915b505050505081565b6000600f836040518082805190602001908083835b602083101515613244578051825260208201915060208101905060208303925061321f565b6001836020036101000a0380198251168184511680821785525050505050509050019150509081526020016040518091039020600101826040518082805190602001908083835b6020831015156132b0578051825260208201915060208101905060208303925061328b565b6001836020036101000a038019825116818451168082178552505050505050905001915050908152602001604051809103902060010154905092915050565b81600f836040518082805190602001908083835b6020831015156133285780518252602082019150602081019050602083039250613303565b6001836020036101000a03801982511681845116808217855250505050505090500191505090815260200160405180910390206000019080519060200190613371929190614bad565b5080600f836040518082805190602001908083835b6020831015156133ab5780518252602082019150602081019050602083039250613386565b6001836020036101000a0380198251168184511680821785525050505050509050019150509081526020016040518091039020600201826040518082805190602001908083835b60208310151561341757805182526020820191506020810190506020830392506133f2565b6001836020036101000a03801982511681845116808217855250505050505090500191505090815260200160405180910390206000019080519060200190613460929190614bad565b506001600681111561346e57fe5b600f836040518082805190602001908083835b6020831015156134a65780518252602082019150602081019050602083039250613481565b6001836020036101000a0380198251168184511680821785525050505050509050019150509081526020016040518091039020600201826040518082805190602001908083835b60208310151561351257805182526020820191506020810190506020830392506134ed565b6001836020036101000a0380198251168184511680821785525050505050509050019150509081526020016040518091039020600101819055505050565b60095481565b600a8054600181600116156101000203166002900480601f0160208091040260200160405190810160405280929190818152602001828054600181600116156101000203166002900480156135ec5780601f106135c1576101008083540402835291602001916135ec565b820191906000526020600020905b8154815290600101906020018083116135cf57829003601f168201915b505050505081565b600d5481565b6002600f836040518082805190602001908083835b602083101515613634578051825260208201915060208101905060208303925061360f565b6001836020036101000a0380198251168184511680821785525050505050509050019150509081526020016040518091039020600201826040518082805190602001908083835b6020831015156136a0578051825260208201915060208101905060208303925061367b565b6001836020036101000a0380198251168184511680821785525050505050509050019150509081526020016040518091039020600101541415156136e357600080fd5b600460068111156136f057fe5b600f836040518082805190602001908083835b6020831015156137285780518252602082019150602081019050602083039250613703565b6001836020036101000a0380198251168184511680821785525050505050509050019150509081526020016040518091039020600201826040518082805190602001908083835b602083101515613794578051825260208201915060208101905060208303925061376f565b6001836020036101000a0380198251168184511680821785525050505050509050019150509081526020016040518091039020600101819055505050565b6002600f836040518082805190602001908083835b60208310151561380c57805182526020820191506020810190506020830392506137e7565b6001836020036101000a0380198251168184511680821785525050505050509050019150509081526020016040518091039020600101826040518082805190602001908083835b6020831015156138785780518252602082019150602081019050602083039250613853565b6001836020036101000a0380198251168184511680821785525050505050509050019150509081526020016040518091039020600101541415156138bb57600080fd5b600460068111156138c857fe5b600f836040518082805190602001908083835b60208310151561390057805182526020820191506020810190506020830392506138db565b6001836020036101000a0380198251168184511680821785525050505050509050019150509081526020016040518091039020600101826040518082805190602001908083835b60208310151561396c5780518252602082019150602081019050602083039250613947565b6001836020036101000a0380198251168184511680821785525050505050509050019150509081526020016040518091039020600101819055505050565b600260009054906101000a900473ffffffffffffffffffffffffffffffffffffffff1681565b80600f846040518082805190602001908083835b602083101515613a0957805182526020820191506020810190506020830392506139e4565b6001836020036101000a0380198251168184511680821785525050505050509050019150509081526020016040518091039020600101836040518082805190602001908083835b602083101515613a755780518252602082019150602081019050602083039250613a50565b6001836020036101000a03801982511681845116808217855250505050505090500191505090815260200160405180910390206002019080519060200190613abe929190614bad565b5060026006811115613acc57fe5b600f846040518082805190602001908083835b602083101515613b045780518252602082019150602081019050602083039250613adf565b6001836020036101000a0380198251168184511680821785525050505050509050019150509081526020016040518091039020600101836040518082805190602001908083835b602083101515613b705780518252602082019150602081019050602083039250613b4b565b6001836020036101000a038019825116818451168082178552505050505050905001915050908152602001604051809103902060010181905550505050565b6002600f836040518082805190602001908083835b602083101515613be95780518252602082019150602081019050602083039250613bc4565b6001836020036101000a0380198251168184511680821785525050505050509050019150509081526020016040518091039020600101826040518082805190602001908083835b602083101515613c555780518252602082019150602081019050602083039250613c30565b6001836020036101000a038019825116818451168082178552505050505050905001915050908152602001604051809103902060010154141515613c9857600080fd5b60036006811115613ca557fe5b600f836040518082805190602001908083835b602083101515613cdd5780518252602082019150602081019050602083039250613cb8565b6001836020036101000a0380198251168184511680821785525050505050509050019150509081526020016040518091039020600101826040518082805190602001908083835b602083101515613d495780518252602082019150602081019050602083039250613d24565b6001836020036101000a0380198251168184511680821785525050505050509050019150509081526020016040518091039020600101819055505050565b6002600f836040518082805190602001908083835b602083101515613dc15780518252602082019150602081019050602083039250613d9c565b6001836020036101000a0380198251168184511680821785525050505050509050019150509081526020016040518091039020600201826040518082805190602001908083835b602083101515613e2d5780518252602082019150602081019050602083039250613e08565b6001836020036101000a038019825116818451168082178552505050505050905001915050908152602001604051809103902060010154141515613e7057600080fd5b60036006811115613e7d57fe5b600f836040518082805190602001908083835b602083101515613eb55780518252602082019150602081019050602083039250613e90565b6001836020036101000a0380198251168184511680821785525050505050509050019150509081526020016040518091039020600201826040518082805190602001908083835b602083101515613f215780518252602082019150602081019050602083039250613efc565b6001836020036101000a0380198251168184511680821785525050505050509050019150509081526020016040518091039020600101819055505050565b600160009054906101000a900473ffffffffffffffffffffffffffffffffffffffff1681565b600360009054906101000a900473ffffffffffffffffffffffffffffffffffffffff1681565b6000809054906101000a900460ff1681565b82600f846040518082805190602001908083835b602083101515613ff65780518252602082019150602081019050602083039250613fd1565b6001836020036101000a0380198251168184511680821785525050505050509050019150509081526020016040518091039020600001908051906020019061403f929190614bad565b5081600f846040518082805190602001908083835b6020831015156140795780518252602082019150602081019050602083039250614054565b6001836020036101000a0380198251168184511680821785525050505050509050019150509081526020016040518091039020600201836040518082805190602001908083835b6020831015156140e557805182526020820191506020810190506020830392506140c0565b6001836020036101000a0380198251168184511680821785525050505050509050019150509081526020016040518091039020600301826040518082805190602001908083835b602083101515614151578051825260208201915060208101905060208303925061412c565b6001836020036101000a0380198251168184511680821785525050505050509050019150509081526020016040518091039020600001908051906020019061419a929190614bad565b50600160068111156141a857fe5b600f846040518082805190602001908083835b6020831015156141e057805182526020820191506020810190506020830392506141bb565b6001836020036101000a0380198251168184511680821785525050505050509050019150509081526020016040518091039020600201836040518082805190602001908083835b60208310151561424c5780518252602082019150602081019050602083039250614227565b6001836020036101000a0380198251168184511680821785525050505050509050019150509081526020016040518091039020600301826040518082805190602001908083835b6020831015156142b85780518252602082019150602081019050602083039250614293565b6001836020036101000a038019825116818451168082178552505050505050905001915050908152602001604051809103902060010181905550505050565b60078054600181600116156101000203166002900480601f01602080910402602001604051908101604052809291908181526020018280546001816001161561010002031660029004801561438d5780601f106143625761010080835404028352916020019161438d565b820191906000526020600020905b81548152906001019060200180831161437057829003601f168201915b505050505081565b60088054600181600116156101000203166002900480601f01602080910402602001604051908101604052809291908181526020018280546001816001161561010002031660029004801561442b5780601f106144005761010080835404028352916020019161442b565b820191906000526020600020905b81548152906001019060200180831161440e57829003601f168201915b505050505081565b600060019054906101000a900473ffffffffffffffffffffffffffffffffffffffff1681565b82600f846040518082805190602001908083835b602083101515614492578051825260208201915060208101905060208303925061446d565b6001836020036101000a038019825116818451168082178552505050505050905001915050908152602001604051809103902060000190805190602001906144db929190614bad565b5081600f846040518082805190602001908083835b60208310151561451557805182526020820191506020810190506020830392506144f0565b6001836020036101000a0380198251168184511680821785525050505050509050019150509081526020016040518091039020600101836040518082805190602001908083835b602083101515614581578051825260208201915060208101905060208303925061455c565b6001836020036101000a038019825116818451168082178552505050505050905001915050908152602001604051809103902060000190805190602001906145ca929190614bad565b50600160068111156145d857fe5b600f846040518082805190602001908083835b60208310151561461057805182526020820191506020810190506020830392506145eb565b6001836020036101000a0380198251168184511680821785525050505050509050019150509081526020016040518091039020600101836040518082805190602001908083835b60208310151561467c5780518252602082019150602081019050602083039250614657565b6001836020036101000a03801982511681845116808217855250505050505090500191505090815260200160405180910390206001018190555080600f846040518082805190602001908083835b6020831015156146ef57805182526020820191506020810190506020830392506146ca565b6001836020036101000a0380198251168184511680821785525050505050509050019150509081526020016040518091039020600101836040518082805190602001908083835b60208310151561475b5780518252602082019150602081019050602083039250614736565b6001836020036101000a038019825116818451168082178552505050505050905001915050908152602001604051809103902060060190805190602001906147a4929190614bad565b50505050565b6005600f846040518082805190602001908083835b6020831015156147e457805182526020820191506020810190506020830392506147bf565b6001836020036101000a0380198251168184511680821785525050505050509050019150509081526020016040518091039020600201836040518082805190602001908083835b602083101515614850578051825260208201915060208101905060208303925061482b565b6001836020036101000a038019825116818451168082178552505050505050905001915050908152602001604051809103902060010154141561489257600080fd5b80600f846040518082805190602001908083835b6020831015156148cb57805182526020820191506020810190506020830392506148a6565b6001836020036101000a0380198251168184511680821785525050505050509050019150509081526020016040518091039020600101836040518082805190602001908083835b6020831015156149375780518252602082019150602081019050602083039250614912565b6001836020036101000a03801982511681845116808217855250505050505090500191505090815260200160405180910390206002019080519060200190614980929190614bad565b506002600681111561498e57fe5b600f846040518082805190602001908083835b6020831015156149c657805182526020820191506020810190506020830392506149a1565b6001836020036101000a0380198251168184511680821785525050505050509050019150509081526020016040518091039020600201836040518082805190602001908083835b602083101515614a325780518252602082019150602081019050602083039250614a0d565b6001836020036101000a038019825116818451168082178552505050505050905001915050908152602001604051809103902060010181905550505050565b60048054600181600116156101000203166002900480601f016020809104026020016040519081016040528092919081815260200182805460018160011615610100020316600290048015614b075780601f10614adc57610100808354040283529160200191614b07565b820191906000526020600020905b815481529060010190602001808311614aea57829003601f168201915b505050505081565b600b8054600181600116156101000203166002900480601f016020809104026020016040519081016040528092919081815260200182805460018160011615610100020316600290048015614ba55780601f10614b7a57610100808354040283529160200191614ba5565b820191906000526020600020905b815481529060010190602001808311614b8857829003601f168201915b505050505081565b828054600181600116156101000203166002900490600052602060002090601f016020900481019282601f10614bee57805160ff1916838001178555614c1c565b82800160010185558215614c1c579182015b82811115614c1b578251825591602001919060010190614c00565b5b509050614c299190614c2d565b5090565b614c4f91905b80821115614c4b576000816000905550600101614c33565b5090565b905600a165627a7a72305820a296fdeb972226567847831c9b0a849289d3f12857e9dbc349a76c12e9453e3b0029",
  "source": "pragma solidity ^0.4.23;\n\ncontract FarmerInterface {\n  function readAsset(string _farmerIDnum, string _lotIDnum)\n    view\n    public\n    returns (uint)\n    {}\n}\n\ncontract Processor{\n\n\t//Variables declaration\n\tenum AssetsState { ContractCreated, AssetCreated, AssetTransferred, AssetApproved, AssetRejected, AssetRecall, Completed }\n\n    AssetsState public state;\t\n\n    address public  farmer;\n    address public  processingHouse;  \n\taddress public  warehouse;  \n\taddress public  distributor;  \n    string public farmerID;\n\tstring public phID;\n\tstring public lotID;\t\n\tstring public fmr_farmerID;\n\tstring public fmr_lotID;\n\tuint public fmr_state;\n\tstring public fmr_phID;\n\tstring public fmr_reason;\n\taddress farmeraddress;\n\tuint public assetread;\n\t\n\tFarmerInterface private exampleContract;\n\t\n    //farmerContract fmr;\n    modifier isFarmer() {\n        require(msg.sender == farmer);\n        _;\n    }\n\n    modifier isProcessingHouse() {\n        require(msg.sender == processingHouse);\n        _;\n    }\n\n    modifier isWarehouse() {\n        require(msg.sender == warehouse);\n        _;\n    }\n\n    modifier isDistributor() {\n        require(msg.sender == distributor);\n        _;\n    }\t\n\t\n\t//struct declaration for handling the PHLot details\n\tstruct phStruct {\n\t\tstring PHLotID;\n\t\tmapping(string => commonstruct) userID;\n\t\tmapping(string => whStruct) lotIDWH;\n\t}\n\t\t\n\tmapping(string => phStruct) lotIDPH;\n\n\t//struct declaration for handling the WHLot details\n\tstruct whStruct {\n\t\tstring whlotID;\t\n\t\tuint stateWH;\n        string reasonWH;\n\t\tmapping(string => distStruct) lotIDDist;        \n\t}\t\t\n\n\t//struct declaration for handling the WHLot details\n\tstruct distStruct {\n\t\tstring caselotID;\t\n\t\tuint stateDist;\n\t\tstring targetID;\n        string reasonDist;\t\t\n\t}\t\n\t\n\tstruct commonstruct {\n\t\tstring userIDnum;\n\t\tuint state;\n\t\tstring targetID;\n\t\tuint timeIn;\n\t\tuint timeOut;\n\t\tuint templotID;\n\t\tstring reason;\t\n\t}\n\n\tconstructor (address _farmerCntrtAddress) public {\n\tfarmeraddress = _farmerCntrtAddress;\n\texampleContract = FarmerInterface(farmeraddress);\n        state = AssetsState.ContractCreated;\n    }      \n\n\t/*function readAsset(string _farmerIDnum, string _lotIDnum) public returns (uint) {\n\t    Farmer contractOne = Farmer(farmeraddress);\n\t\tcontractOne.readAsset(_farmerIDnum,_lotIDnum);\n\t\treturn (fmr_farmerID,fmr_lotID,fmr_state,fmr_phID,fmr_reason);\n\t}\t*/\n\t\n\t//Warehouse creates lotIDWH\t\n\tfunction createAsset(string _lotIDPH, string _userID, string _reason) public{\n\t\tlotIDPH[_lotIDPH].PHLotID = _lotIDPH;\n\t\tlotIDPH[_lotIDPH].userID[_userID].userIDnum = _userID;\t\n\t\tlotIDPH[_lotIDPH].userID[_userID].state = uint(AssetsState.AssetCreated);\n\t\tlotIDPH[_lotIDPH].userID[_userID].reason = _reason;\t\n\t}\n\n\t//Warehouse creates lotIDWH\t\n\tfunction transferAsset(string _lotIDPH, string _userID, string _targetID) public{\n\t\t//lotIDPH[_lotIDPH].state = uint(AssetsState.TransfertoPH);\n\t\tlotIDPH[_lotIDPH].userID[_userID].targetID = _targetID;\n\t\tlotIDPH[_lotIDPH].userID[_userID].state = uint(AssetsState.AssetTransferred);\n\t}\n\n   function createWhAsset(string _lotIDPH, string _lotIDWH) public{\n\t\tlotIDPH[_lotIDPH].PHLotID = _lotIDPH;\n\t\tlotIDPH[_lotIDPH].lotIDWH[_lotIDWH].whlotID = _lotIDWH;\t\n\t\tlotIDPH[_lotIDPH].lotIDWH[_lotIDWH].stateWH = uint(AssetsState.AssetCreated);\n\t\t//lotIDPH[_lotIDPH].lotIDWH[_lotIDWH].reasonWH = _reason;\n\t\t\n   }\n\n\t//Warehouse creates lotIDWH\t\n\tfunction transferWhAsset(string _lotIDPH, string _lotIDWH, string _targetID) public{\n\t\t//lotIDPH[_lotIDPH].state = uint(AssetsState.TransfertoPH);\n\t\tif (uint(lotIDPH[_lotIDPH].lotIDWH[_lotIDWH].stateWH) == 5) {\n\t\t\trevert();\n\t\t}\t\t\t\n\t\tlotIDPH[_lotIDPH].userID[_lotIDWH].targetID = _targetID;\n\t\tlotIDPH[_lotIDPH].lotIDWH[_lotIDWH].stateWH = uint(AssetsState.AssetTransferred);\n\t}\n\n\t//Warehouse recall lotIDWH\t\n\tfunction recallWhAsset(string _lotIDPH, string _lotIDWH, string _reason) public{\n\t\t//lotIDPH[_lotIDPH].state = uint(AssetsState.TransfertoPH)\n\t\tlotIDPH[_lotIDPH].lotIDWH[_lotIDWH].stateWH = uint(AssetsState.AssetRecall);\n\t\tlotIDPH[_lotIDPH].lotIDWH[_lotIDWH].reasonWH = _reason;\n\t}\t\n\t\n\tfunction readWhAsset(string _lotIDPH, string _lotIDWH) public returns (uint) {\n\t\treturn (lotIDPH[_lotIDPH].lotIDWH[_lotIDWH].stateWH);\n\t}\t\n\n\t\t//ProcessingHouse receives the lotID sent by the farmer after auditing\n\tfunction whreceiveLot(string _lotIDPH, string _userID) public {        \n\n\t\tif (uint(lotIDPH[_lotIDPH].userID[_userID].state) != 2) {\n\t\t\trevert();\n\t\t}\t\t\t\n        \n        //Once agreed by the processingHouse, the new contract gets created which involves the life cycle of product including the ProcessingHouse/ Distributor/ Food service operator\n\t\t\t\t\n       lotIDPH[_lotIDPH].userID[_userID].state  = uint(AssetsState.AssetApproved);\n\t\n\t\t\n    }    \t\n\t//ProcessingHouse rejects the lot sent by the farmer in case if the quality of the meat is not good\n\t\n\tfunction whrejectLot(string _lotIDPH, string _userID) public {        \n\n\t\tif (uint(lotIDPH[_lotIDPH].userID[_userID].state) != 2) {\n\t\t\trevert();\n\t\t}\n\t\t lotIDPH[_lotIDPH].userID[_userID].state  = uint(AssetsState.AssetRejected);\t\t\t\n        \n    }    \t\n\t\n\t//anyone can read the lotIDWH\n\tfunction processReadAsset(string _lotIDPH, string _userID) public returns (string, string, uint, string, string) {\n\t\treturn (lotIDPH[_lotIDPH].PHLotID,lotIDPH[_lotIDPH].userID[_userID].userIDnum,lotIDPH[_lotIDPH].userID[_userID].state,lotIDPH[_lotIDPH].userID[_userID].targetID,lotIDPH[_lotIDPH].userID[_userID].reason);\n\t}\t\n\t\n\tfunction processState(string _lotIDPH, string _userID) public returns (uint) {\n\t\treturn (lotIDPH[_lotIDPH].userID[_userID].state);\n\t}\t\n\n/*\tfunction readAsset(string _farmerIDnum, string _lotIDnum) public returns (bool) {\n\t\tassetread = exampleContract.readAsset(_farmerIDnum, _lotIDnum);\n\t\treturn true;\n\t}\t\t*/\n//distributor starts\t\n   function createDistAsset(string _lotIDPH, string _lotIDWH, string _lotIDDist) public{\n\t\tlotIDPH[_lotIDPH].PHLotID = _lotIDPH;\n\t\tlotIDPH[_lotIDPH].lotIDWH[_lotIDWH].lotIDDist[_lotIDDist].caselotID = _lotIDWH;\t\n\t\tlotIDPH[_lotIDPH].lotIDWH[_lotIDWH].lotIDDist[_lotIDDist].stateDist = uint(AssetsState.AssetCreated);\n\t\t//lotIDPH[_lotIDPH].lotIDWH[_lotIDWH].reasonWH = _reason;\n\t\t\n   }\n\n\t//Warehouse creates lotIDWH\t\n\tfunction transferDistAsset(string _lotIDPH, string _lotIDWH, string _lotIDDist, string _targetID) public{\n\t\t//lotIDPH[_lotIDPH].state = uint(AssetsState.TransfertoPH);\n\t\tif (uint(lotIDPH[_lotIDPH].lotIDWH[_lotIDWH].lotIDDist[_lotIDDist].stateDist) == 5) {\n\t\t\trevert();\n\t\t}\t\t\t\n\t\tlotIDPH[_lotIDPH].lotIDWH[_lotIDWH].lotIDDist[_lotIDDist].targetID = _targetID;\n\t\tlotIDPH[_lotIDPH].lotIDWH[_lotIDWH].lotIDDist[_lotIDDist].stateDist = uint(AssetsState.AssetTransferred);\n\t}\n\n\t//Warehouse recall lotIDWH\t\n\tfunction recallDistAsset(string _lotIDPH, string _lotIDWH, string _lotIDDist, string _reason) public{\n\t\t//lotIDPH[_lotIDPH].state = uint(AssetsState.TransfertoPH)\n\t\tlotIDPH[_lotIDPH].lotIDWH[_lotIDWH].lotIDDist[_lotIDDist].stateDist = uint(AssetsState.AssetRecall);\n\t\tlotIDPH[_lotIDPH].lotIDWH[_lotIDWH].lotIDDist[_lotIDDist].reasonDist = _reason;\n\t}\t\n\t\n/*\tfunction readWhAsset(string _lotIDPH, string _lotIDWH, string _lotIDDist) public returns (uint) {\n\t\treturn (lotIDPH[_lotIDPH].lotIDWH[_lotIDWH].lotIDDist[_lotIDDist].stateDist);\n\t}\t*/\n\n\t\t//ProcessingHouse receives the lotID sent by the farmer after auditing\n\tfunction distreceiveLot(string _lotIDPH, string _lotIDWH) public {        \n\n\t\tif (uint(lotIDPH[_lotIDPH].lotIDWH[_lotIDWH].stateWH) != 2) {\n\t\t\trevert();\n\t\t}\t\t\t\n        \n        //Once agreed by the processingHouse, the new contract gets created which involves the life cycle of product including the ProcessingHouse/ Distributor/ Food service operator\n\t\t\t\t\n       lotIDPH[_lotIDPH].lotIDWH[_lotIDWH].stateWH  = uint(AssetsState.AssetApproved);\n\t\n\t\t\n    }    \t\n\t//ProcessingHouse rejects the lot sent by the farmer in case if the quality of the meat is not good\n\t\n\tfunction distrejectLot(string _lotIDPH, string _lotIDWH) public {        \n\n\t\tif (uint(lotIDPH[_lotIDPH].lotIDWH[_lotIDWH].stateWH) != 2) {\n\t\t\trevert();\n\t\t}\n\t\t lotIDPH[_lotIDPH].lotIDWH[_lotIDWH].stateWH  = uint(AssetsState.AssetRejected);\t\t\t\n        \n    }    \t\n\t\n\t//anyone can read the lotIDWH\n\tfunction distReadAsset(string _lotIDPH, string _lotIDWH, string _lotIDDist) public returns (string, string, uint, string) {\n\t\treturn (lotIDPH[_lotIDPH].PHLotID,lotIDPH[_lotIDPH].lotIDWH[_lotIDWH].lotIDDist[_lotIDDist].caselotID,lotIDPH[_lotIDPH].lotIDWH[_lotIDWH].lotIDDist[_lotIDDist].stateDist,lotIDPH[_lotIDPH].lotIDWH[_lotIDWH].lotIDDist[_lotIDDist].targetID);\n\t}\t\n\t\n\tfunction distState(string _lotIDPH, string _lotIDWH, string _lotIDDist) public returns (uint) {\n\t\treturn (lotIDPH[_lotIDPH].lotIDWH[_lotIDWH].lotIDDist[_lotIDDist].stateDist);\n\t}\t\t\n\t\n}",
  "sourcePath": "/home/ec2-user/demooct22/V1_Oct22_2_24pm/contracts/Processor.sol",
  "compiler": {
    "name": "solc",
    "version": "0.4.24+commit.e67f0147.Emscripten.clang"
  },
  "schemaVersion": "2.0.1",
  "updatedAt": "2018-10-25T09:20:10.152Z"
}